{
  "_format": "hh-sol-artifact-1",
  "contractName": "TechBlogPlace",
  "sourceName": "contracts/TechBlogPlace.sol",
  "abi": [
    {
      "inputs": [],
      "stateMutability": "nonpayable",
      "type": "constructor"
    },
    {
      "anonymous": false,
      "inputs": [
        {
          "indexed": true,
          "internalType": "address",
          "name": "from",
          "type": "address"
        },
        {
          "indexed": false,
          "internalType": "uint256",
          "name": "timestamp",
          "type": "uint256"
        },
        {
          "indexed": false,
          "internalType": "string",
          "name": "message",
          "type": "string"
        }
      ],
      "name": "NewRecommendation",
      "type": "event"
    },
    {
      "inputs": [],
      "name": "getAllRecommendations",
      "outputs": [
        {
          "components": [
            {
              "internalType": "address",
              "name": "recommender",
              "type": "address"
            },
            {
              "internalType": "string",
              "name": "blog",
              "type": "string"
            },
            {
              "internalType": "uint256",
              "name": "timestamp",
              "type": "uint256"
            }
          ],
          "internalType": "struct TechBlogPlace.Recommendation[]",
          "name": "",
          "type": "tuple[]"
        }
      ],
      "stateMutability": "view",
      "type": "function"
    },
    {
      "inputs": [],
      "name": "getTotalRecommendations",
      "outputs": [
        {
          "internalType": "uint256",
          "name": "",
          "type": "uint256"
        }
      ],
      "stateMutability": "view",
      "type": "function"
    },
    {
      "inputs": [
        {
          "internalType": "string",
          "name": "_blog",
          "type": "string"
        }
      ],
      "name": "recommend",
      "outputs": [],
      "stateMutability": "nonpayable",
      "type": "function"
    }
  ],
  "bytecode": "0x608060405234801561001057600080fd5b506100596040518060400160405280601481526020017f436f6e7374727563746f7220696e766f6b65642100000000000000000000000081525061005e60201b61035a1760201c565b6101e1565b6100fa81604051602401610072919061015f565b6040516020818303038152906040527f41304fac000000000000000000000000000000000000000000000000000000007bffffffffffffffffffffffffffffffffffffffffffffffffffffffff19166020820180517bffffffffffffffffffffffffffffffffffffffffffffffffffffffff83818316178352505050506100fd60201b60201c565b50565b60008151905060006a636f6e736f6c652e6c6f679050602083016000808483855afa5050505050565b600061013182610181565b61013b818561018c565b935061014b81856020860161019d565b610154816101d0565b840191505092915050565b600060208201905081810360008301526101798184610126565b905092915050565b600081519050919050565b600082825260208201905092915050565b60005b838110156101bb5780820151818401526020810190506101a0565b838111156101ca576000848401525b50505050565b6000601f19601f8301169050919050565b610aa4806101f06000396000f3fe608060405234801561001057600080fd5b50600436106100415760003560e01c80631a16c159146100465780637dfdf51414610064578063d886ad3d14610080575b600080fd5b61004e61009e565b60405161005b919061078e565b60405180910390f35b61007e600480360381019061007991906105c6565b6101ef565b005b61008861034e565b6040516100959190610817565b60405180910390f35b60606000805480602002602001604051908101604052809291908181526020016000905b828210156101e657838290600052602060002090600302016040518060600160405290816000820160009054906101000a900473ffffffffffffffffffffffffffffffffffffffff1673ffffffffffffffffffffffffffffffffffffffff1673ffffffffffffffffffffffffffffffffffffffff16815260200160018201805461014b9061099c565b80601f01602080910402602001604051908101604052809291908181526020018280546101779061099c565b80156101c45780601f10610199576101008083540402835291602001916101c4565b820191906000526020600020905b8154815290600101906020018083116101a757829003601f168201915b50505050508152602001600282015481525050815260200190600101906100c2565b50505050905090565b61022f6040518060400160405280601681526020017f2573207265636f6d6d656e64656420626c6f672025730000000000000000000081525033836103f3565b600060405180606001604052803373ffffffffffffffffffffffffffffffffffffffff16815260200183815260200142815250908060018154018082558091505060019003906000526020600020906003020160009091909190915060008201518160000160006101000a81548173ffffffffffffffffffffffffffffffffffffffff021916908373ffffffffffffffffffffffffffffffffffffffff16021790555060208201518160010190805190602001906102ee9291906104bb565b506040820151816002015550503373ffffffffffffffffffffffffffffffffffffffff167fd3efbb8c6489c5509717c60f6311a90e0d700f0e5d285fa6193662c14fd1da464283604051610343929190610832565b60405180910390a250565b60008080549050905090565b6103f08160405160240161036e91906107b0565b6040516020818303038152906040527f41304fac000000000000000000000000000000000000000000000000000000007bffffffffffffffffffffffffffffffffffffffffffffffffffffffff19166020820180517bffffffffffffffffffffffffffffffffffffffffffffffffffffffff8381831617835250505050610492565b50565b61048d83838360405160240161040b939291906107d2565b6040516020818303038152906040527fe0e9ad4f000000000000000000000000000000000000000000000000000000007bffffffffffffffffffffffffffffffffffffffffffffffffffffffff19166020820180517bffffffffffffffffffffffffffffffffffffffffffffffffffffffff8381831617835250505050610492565b505050565b60008151905060006a636f6e736f6c652e6c6f679050602083016000808483855afa5050505050565b8280546104c79061099c565b90600052602060002090601f0160209004810192826104e95760008555610530565b82601f1061050257805160ff1916838001178555610530565b82800160010185558215610530579182015b8281111561052f578251825591602001919060010190610514565b5b50905061053d9190610541565b5090565b5b8082111561055a576000816000905550600101610542565b5090565b600061057161056c84610887565b610862565b90508281526020810184848401111561058957600080fd5b61059484828561095a565b509392505050565b600082601f8301126105ad57600080fd5b81356105bd84826020860161055e565b91505092915050565b6000602082840312156105d857600080fd5b600082013567ffffffffffffffff8111156105f257600080fd5b6105fe8482850161059c565b91505092915050565b60006106138383610720565b905092915050565b6106248161091e565b82525050565b6106338161091e565b82525050565b6000610644826108c8565b61064e81856108eb565b935083602082028501610660856108b8565b8060005b8581101561069c578484038952815161067d8582610607565b9450610688836108de565b925060208a01995050600181019050610664565b50829750879550505050505092915050565b60006106b9826108d3565b6106c381856108fc565b93506106d3818560208601610969565b6106dc81610a5d565b840191505092915050565b60006106f2826108d3565b6106fc818561090d565b935061070c818560208601610969565b61071581610a5d565b840191505092915050565b6000606083016000830151610738600086018261061b565b506020830151848203602086015261075082826106ae565b91505060408301516107656040860182610770565b508091505092915050565b61077981610950565b82525050565b61078881610950565b82525050565b600060208201905081810360008301526107a88184610639565b905092915050565b600060208201905081810360008301526107ca81846106e7565b905092915050565b600060608201905081810360008301526107ec81866106e7565b90506107fb602083018561062a565b818103604083015261080d81846106e7565b9050949350505050565b600060208201905061082c600083018461077f565b92915050565b6000604082019050610847600083018561077f565b818103602083015261085981846106e7565b90509392505050565b600061086c61087d565b905061087882826109ce565b919050565b6000604051905090565b600067ffffffffffffffff8211156108a2576108a1610a2e565b5b6108ab82610a5d565b9050602081019050919050565b6000819050602082019050919050565b600081519050919050565b600081519050919050565b6000602082019050919050565b600082825260208201905092915050565b600082825260208201905092915050565b600082825260208201905092915050565b600061092982610930565b9050919050565b600073ffffffffffffffffffffffffffffffffffffffff82169050919050565b6000819050919050565b82818337600083830152505050565b60005b8381101561098757808201518184015260208101905061096c565b83811115610996576000848401525b50505050565b600060028204905060018216806109b457607f821691505b602082108114156109c8576109c76109ff565b5b50919050565b6109d782610a5d565b810181811067ffffffffffffffff821117156109f6576109f5610a2e565b5b80604052505050565b7f4e487b7100000000000000000000000000000000000000000000000000000000600052602260045260246000fd5b7f4e487b7100000000000000000000000000000000000000000000000000000000600052604160045260246000fd5b6000601f19601f830116905091905056fea26469706673582212207d9476997bec6a9fd2da20bcd617451af654895d8a6d6530a2154289f5b51a2c64736f6c63430008040033",
  "linkReferences": {},
  "deployedLinkReferences": {}
}