{
  "_format": "hh-sol-artifact-1",
  "contractName": "TechBlogPlace",
  "sourceName": "contracts/TechBlogPlace.sol",
  "abi": [
    {
      "inputs": [],
      "stateMutability": "payable",
      "type": "constructor"
    },
    {
      "anonymous": false,
      "inputs": [
        {
          "indexed": true,
          "internalType": "address",
          "name": "from",
          "type": "address"
        },
        {
          "indexed": false,
          "internalType": "uint256",
          "name": "timestamp",
          "type": "uint256"
        },
        {
          "indexed": false,
          "internalType": "string",
          "name": "message",
          "type": "string"
        }
      ],
      "name": "NewRecommendation",
      "type": "event"
    },
    {
      "inputs": [],
      "name": "getAllRecommendations",
      "outputs": [
        {
          "components": [
            {
              "internalType": "address",
              "name": "recommender",
              "type": "address"
            },
            {
              "internalType": "string",
              "name": "blog",
              "type": "string"
            },
            {
              "internalType": "uint256",
              "name": "timestamp",
              "type": "uint256"
            }
          ],
          "internalType": "struct TechBlogPlace.Recommendation[]",
          "name": "",
          "type": "tuple[]"
        }
      ],
      "stateMutability": "view",
      "type": "function"
    },
    {
      "inputs": [],
      "name": "getTotalRecommendations",
      "outputs": [
        {
          "internalType": "uint256",
          "name": "",
          "type": "uint256"
        }
      ],
      "stateMutability": "view",
      "type": "function"
    },
    {
      "inputs": [
        {
          "internalType": "string",
          "name": "_blog",
          "type": "string"
        }
      ],
      "name": "recommend",
      "outputs": [],
      "stateMutability": "nonpayable",
      "type": "function"
    }
  ],
  "bytecode": "0x60806040526200004f6040518060400160405280601481526020017f436f6e7374727563746f7220696e766f6b6564210000000000000000000000008152506200005560201b620004571760201c565b620001e9565b620000f5816040516024016200006c919062000162565b6040516020818303038152906040527f41304fac000000000000000000000000000000000000000000000000000000007bffffffffffffffffffffffffffffffffffffffffffffffffffffffff19166020820180517bffffffffffffffffffffffffffffffffffffffffffffffffffffffff8381831617835250505050620000f860201b60201c565b50565b60008151905060006a636f6e736f6c652e6c6f679050602083016000808483855afa5050505050565b60006200012e8262000186565b6200013a818562000191565b93506200014c818560208601620001a2565b6200015781620001d8565b840191505092915050565b600060208201905081810360008301526200017e818462000121565b905092915050565b600081519050919050565b600082825260208201905092915050565b60005b83811015620001c2578082015181840152602081019050620001a5565b83811115620001d2576000848401525b50505050565b6000601f19601f8301169050919050565b610d0b80620001f96000396000f3fe608060405234801561001057600080fd5b50600436106100415760003560e01c80631a16c159146100465780637dfdf51414610064578063d886ad3d14610080575b600080fd5b61004e61009e565b60405161005b9190610909565b60405180910390f35b61007e600480360381019061007991906106c3565b6101ef565b005b61008861044b565b60405161009591906109d2565b60405180910390f35b60606000805480602002602001604051908101604052809291908181526020016000905b828210156101e657838290600052602060002090600302016040518060600160405290816000820160009054906101000a900473ffffffffffffffffffffffffffffffffffffffff1673ffffffffffffffffffffffffffffffffffffffff1673ffffffffffffffffffffffffffffffffffffffff16815260200160018201805461014b90610b62565b80601f016020809104026020016040519081016040528092919081815260200182805461017790610b62565b80156101c45780601f10610199576101008083540402835291602001916101c4565b820191906000526020600020905b8154815290600101906020018083116101a757829003601f168201915b50505050508152602001600282015481525050815260200190600101906100c2565b50505050905090565b61022f6040518060400160405280601681526020017f2573207265636f6d6d656e64656420626c6f672025730000000000000000000081525033836104f0565b600060405180606001604052803373ffffffffffffffffffffffffffffffffffffffff16815260200183815260200142815250908060018154018082558091505060019003906000526020600020906003020160009091909190915060008201518160000160006101000a81548173ffffffffffffffffffffffffffffffffffffffff021916908373ffffffffffffffffffffffffffffffffffffffff16021790555060208201518160010190805190602001906102ee9291906105b8565b506040820151816002015550503373ffffffffffffffffffffffffffffffffffffffff167fd3efbb8c6489c5509717c60f6311a90e0d700f0e5d285fa6193662c14fd1da4642836040516103439291906109ed565b60405180910390a2600066038d7ea4c6800090504781111561039a576040517f08c379a000000000000000000000000000000000000000000000000000000000815260040161039190610992565b60405180910390fd5b60003373ffffffffffffffffffffffffffffffffffffffff16826040516103c0906108f4565b60006040518083038185875af1925050503d80600081146103fd576040519150601f19603f3d011682016040523d82523d6000602084013e610402565b606091505b5050905080610446576040517f08c379a000000000000000000000000000000000000000000000000000000000815260040161043d906109b2565b60405180910390fd5b505050565b60008080549050905090565b6104ed8160405160240161046b919061092b565b6040516020818303038152906040527f41304fac000000000000000000000000000000000000000000000000000000007bffffffffffffffffffffffffffffffffffffffffffffffffffffffff19166020820180517bffffffffffffffffffffffffffffffffffffffffffffffffffffffff838183161783525050505061058f565b50565b61058a8383836040516024016105089392919061094d565b6040516020818303038152906040527fe0e9ad4f000000000000000000000000000000000000000000000000000000007bffffffffffffffffffffffffffffffffffffffffffffffffffffffff19166020820180517bffffffffffffffffffffffffffffffffffffffffffffffffffffffff838183161783525050505061058f565b505050565b60008151905060006a636f6e736f6c652e6c6f679050602083016000808483855afa5050505050565b8280546105c490610b62565b90600052602060002090601f0160209004810192826105e6576000855561062d565b82601f106105ff57805160ff191683800117855561062d565b8280016001018555821561062d579182015b8281111561062c578251825591602001919060010190610611565b5b50905061063a919061063e565b5090565b5b8082111561065757600081600090555060010161063f565b5090565b600061066e61066984610a42565b610a1d565b90508281526020810184848401111561068657600080fd5b610691848285610b20565b509392505050565b600082601f8301126106aa57600080fd5b81356106ba84826020860161065b565b91505092915050565b6000602082840312156106d557600080fd5b600082013567ffffffffffffffff8111156106ef57600080fd5b6106fb84828501610699565b91505092915050565b60006107108383610886565b905092915050565b61072181610ae4565b82525050565b61073081610ae4565b82525050565b600061074182610a83565b61074b8185610aa6565b93508360208202850161075d85610a73565b8060005b85811015610799578484038952815161077a8582610704565b945061078583610a99565b925060208a01995050600181019050610761565b50829750879550505050505092915050565b60006107b682610a8e565b6107c08185610ac2565b93506107d0818560208601610b2f565b6107d981610c23565b840191505092915050565b60006107ef82610a8e565b6107f98185610ad3565b9350610809818560208601610b2f565b61081281610c23565b840191505092915050565b600061082a603483610ad3565b915061083582610c34565b604082019050919050565b600061084d602783610ad3565b915061085882610c83565b604082019050919050565b6000610870600083610ab7565b915061087b82610cd2565b600082019050919050565b600060608301600083015161089e6000860182610718565b50602083015184820360208601526108b682826107ab565b91505060408301516108cb60408601826108d6565b508091505092915050565b6108df81610b16565b82525050565b6108ee81610b16565b82525050565b60006108ff82610863565b9150819050919050565b600060208201905081810360008301526109238184610736565b905092915050565b6000602082019050818103600083015261094581846107e4565b905092915050565b6000606082019050818103600083015261096781866107e4565b90506109766020830185610727565b818103604083015261098881846107e4565b9050949350505050565b600060208201905081810360008301526109ab8161081d565b9050919050565b600060208201905081810360008301526109cb81610840565b9050919050565b60006020820190506109e760008301846108e5565b92915050565b6000604082019050610a0260008301856108e5565b8181036020830152610a1481846107e4565b90509392505050565b6000610a27610a38565b9050610a338282610b94565b919050565b6000604051905090565b600067ffffffffffffffff821115610a5d57610a5c610bf4565b5b610a6682610c23565b9050602081019050919050565b6000819050602082019050919050565b600081519050919050565b600081519050919050565b6000602082019050919050565b600082825260208201905092915050565b600081905092915050565b600082825260208201905092915050565b600082825260208201905092915050565b6000610aef82610af6565b9050919050565b600073ffffffffffffffffffffffffffffffffffffffff82169050919050565b6000819050919050565b82818337600083830152505050565b60005b83811015610b4d578082015181840152602081019050610b32565b83811115610b5c576000848401525b50505050565b60006002820490506001821680610b7a57607f821691505b60208210811415610b8e57610b8d610bc5565b5b50919050565b610b9d82610c23565b810181811067ffffffffffffffff82111715610bbc57610bbb610bf4565b5b80604052505050565b7f4e487b7100000000000000000000000000000000000000000000000000000000600052602260045260246000fd5b7f4e487b7100000000000000000000000000000000000000000000000000000000600052604160045260246000fd5b6000601f19601f8301169050919050565b7f547279696e6720746f207769746864726177206d6f7265206d6f6e657920746860008201527f616e2074686520636f6e7472616374206861732e000000000000000000000000602082015250565b7f4661696c656420746f207769746864726177206d6f6e65792066726f6d20636f60008201527f6e74726163742e00000000000000000000000000000000000000000000000000602082015250565b5056fea2646970667358221220dde59b8e9eb728a6d5ac3c8509e60924b4bc09ea58260e8d37c515e96fafbe0d64736f6c63430008040033",
  "linkReferences": {},
  "deployedLinkReferences": {}
}